{"abi":[{"type":"constructor","inputs":[{"name":"_usdcToken","type":"address","internalType":"address"}],"stateMutability":"nonpayable"},{"type":"fallback","stateMutability":"payable"},{"type":"receive","stateMutability":"payable"},{"type":"function","name":"MAX_ETH_PAYMENT","inputs":[],"outputs":[{"name":"","type":"uint256","internalType":"uint256"}],"stateMutability":"view"},{"type":"function","name":"MAX_USDC_PAYMENT","inputs":[],"outputs":[{"name":"","type":"uint256","internalType":"uint256"}],"stateMutability":"view"},{"type":"function","name":"MIN_ETH_PAYMENT","inputs":[],"outputs":[{"name":"","type":"uint256","internalType":"uint256"}],"stateMutability":"view"},{"type":"function","name":"MIN_USDC_PAYMENT","inputs":[],"outputs":[{"name":"","type":"uint256","internalType":"uint256"}],"stateMutability":"view"},{"type":"function","name":"emergencyWithdrawToken","inputs":[{"name":"token","type":"address","internalType":"address"}],"outputs":[],"stateMutability":"nonpayable"},{"type":"function","name":"getBalance","inputs":[],"outputs":[{"name":"ethBalance","type":"uint256","internalType":"uint256"},{"name":"usdcBalance","type":"uint256","internalType":"uint256"}],"stateMutability":"view"},{"type":"function","name":"getPayment","inputs":[{"name":"paymentId","type":"bytes32","internalType":"bytes32"}],"outputs":[{"name":"","type":"tuple","internalType":"struct Telopay.Payment","components":[{"name":"payer","type":"address","internalType":"address"},{"name":"amount","type":"uint256","internalType":"uint256"},{"name":"isEth","type":"bool","internalType":"bool"},{"name":"timestamp","type":"uint256","internalType":"uint256"},{"name":"processed","type":"bool","internalType":"bool"}]}],"stateMutability":"view"},{"type":"function","name":"owner","inputs":[],"outputs":[{"name":"","type":"address","internalType":"address"}],"stateMutability":"view"},{"type":"function","name":"pause","inputs":[],"outputs":[],"stateMutability":"nonpayable"},{"type":"function","name":"paused","inputs":[],"outputs":[{"name":"","type":"bool","internalType":"bool"}],"stateMutability":"view"},{"type":"function","name":"payETH","inputs":[],"outputs":[],"stateMutability":"payable"},{"type":"function","name":"payUSDC","inputs":[{"name":"amount","type":"uint256","internalType":"uint256"}],"outputs":[],"stateMutability":"nonpayable"},{"type":"function","name":"payments","inputs":[{"name":"","type":"bytes32","internalType":"bytes32"}],"outputs":[{"name":"payer","type":"address","internalType":"address"},{"name":"amount","type":"uint256","internalType":"uint256"},{"name":"isEth","type":"bool","internalType":"bool"},{"name":"timestamp","type":"uint256","internalType":"uint256"},{"name":"processed","type":"bool","internalType":"bool"}],"stateMutability":"view"},{"type":"function","name":"renounceOwnership","inputs":[],"outputs":[],"stateMutability":"nonpayable"},{"type":"function","name":"transferOwnership","inputs":[{"name":"newOwner","type":"address","internalType":"address"}],"outputs":[],"stateMutability":"nonpayable"},{"type":"function","name":"unpause","inputs":[],"outputs":[],"stateMutability":"nonpayable"},{"type":"function","name":"usdcToken","inputs":[],"outputs":[{"name":"","type":"address","internalType":"contract IERC20"}],"stateMutability":"view"},{"type":"function","name":"withdraw","inputs":[{"name":"ethAmount","type":"uint256","internalType":"uint256"},{"name":"usdcAmount","type":"uint256","internalType":"uint256"}],"outputs":[],"stateMutability":"nonpayable"},{"type":"function","name":"withdrawAll","inputs":[],"outputs":[],"stateMutability":"nonpayable"},{"type":"event","name":"EmergencyWithdrawal","inputs":[{"name":"token","type":"address","indexed":true,"internalType":"address"},{"name":"amount","type":"uint256","indexed":false,"internalType":"uint256"},{"name":"timestamp","type":"uint256","indexed":false,"internalType":"uint256"}],"anonymous":false},{"type":"event","name":"OwnershipTransferred","inputs":[{"name":"previousOwner","type":"address","indexed":true,"internalType":"address"},{"name":"newOwner","type":"address","indexed":true,"internalType":"address"}],"anonymous":false},{"type":"event","name":"Paused","inputs":[{"name":"account","type":"address","indexed":false,"internalType":"address"}],"anonymous":false},{"type":"event","name":"PaymentReceived","inputs":[{"name":"payer","type":"address","indexed":true,"internalType":"address"},{"name":"amount","type":"uint256","indexed":false,"internalType":"uint256"},{"name":"isEth","type":"bool","indexed":false,"internalType":"bool"},{"name":"paymentId","type":"bytes32","indexed":true,"internalType":"bytes32"},{"name":"timestamp","type":"uint256","indexed":false,"internalType":"uint256"}],"anonymous":false},{"type":"event","name":"Unpaused","inputs":[{"name":"account","type":"address","indexed":false,"internalType":"address"}],"anonymous":false},{"type":"event","name":"Withdrawal","inputs":[{"name":"owner","type":"address","indexed":true,"internalType":"address"},{"name":"ethAmount","type":"uint256","indexed":false,"internalType":"uint256"},{"name":"usdcAmount","type":"uint256","indexed":false,"internalType":"uint256"},{"name":"timestamp","type":"uint256","indexed":false,"internalType":"uint256"}],"anonymous":false},{"type":"error","name":"EnforcedPause","inputs":[]},{"type":"error","name":"ExpectedPause","inputs":[]},{"type":"error","name":"OwnableInvalidOwner","inputs":[{"name":"owner","type":"address","internalType":"address"}]},{"type":"error","name":"OwnableUnauthorizedAccount","inputs":[{"name":"account","type":"address","internalType":"address"}]},{"type":"error","name":"ReentrancyGuardReentrantCall","inputs":[]}],"bytecode":{"object":"0x60a03461015657601f6115c638819003918201601f19168301916001600160401b0383118484101761015a5780849260209460405283398101031261015657516001600160a01b038082169182900361015657331561013e575f543360018060a01b03198216175f55604051913391167f8be0079c531659141344cd1fd0a4f28419497f9722a3daafe3b4186f6b6457e05f80a360017f9b779b17422d0df92223018b32b4d1fa46e071723d6817e2486d003becc55f005581156100fc5750608052604051611457908161016f82396080518181816103510152818161085801528181610c7301528181610ead01528181611103015261119d0152f35b62461bcd60e51b815260206004820152601a60248201527f496e76616c6964205553444320746f6b656e20616464726573730000000000006044820152606490fd5b604051631e4fbdf760e01b81525f6004820152602490fd5b5f80fd5b634e487b7160e01b5f52604160045260245ffdfe6080604090808252600490813610156100a1575b503615610054576020606492519162461bcd60e51b83528201526015602482015274125b9d985b1a5908199d5b98dd1a5bdb8818d85b1b605a1b6044820152fd5b6020608492519162461bcd60e51b8352820152602260248201527f5573652070617945544828292066756e6374696f6e20666f72207061796d656e604482015261747360f01b6064820152fd5b5f90813560e01c9081630328311a14611230575080630716326d146111cc57806311eac8551461118857806312065fe0146110d45780631af0320314610e715780632beb7a5e14610e4e5780633647626014610e2d5780633f4ba83a14610dbe578063441a3e7014610c255780635c975abb14610c005780635d1a8d7b146107ec5780636860d96614610612578063715018a6146105b55780638456cb5914610556578063853828b61461030c5780638da5cb5b146102e4578063e66eefc81461022d578063f2fde38b1461019b5763f66cde010361001357823461019757816003193601126101975760209051620f42408152f35b5080fd5b509134610229576020366003190112610229576001600160a01b03823581811693919290849003610225576101ce611251565b831561020f57505082546001600160a01b0319811683178455167f8be0079c531659141344cd1fd0a4f28419497f9722a3daafe3b4186f6b6457e08380a380f35b51631e4fbdf760e01b8152908101849052602490fd5b8480fd5b8280fd5b50913461022957602036600319011261022957808360a094608083516102528161127c565b828152826020820152828582015282606082015201528335815260016020522081519161027e8361127c565b600180861b0382541693848452600183015460208501908152608060ff8060028701541693858801941515855260038701549660608901978852015416950194151585528251958652516020860152511515908401525160608301525115156080820152f35b508234610197578160031936011261019757905490516001600160a01b039091168152602090f35b50919034610229578260031936011261022957610327611251565b61032f6112ee565b81516370a0823160e01b815230818301526001600160a01b03914791906020907f00000000000000000000000000000000000000000000000000000000000000008516908284602481855afa93841561054c578894610519575b50841580158091610510575b156104d6576104b5575b836103fc575b5050855494519283525060208201524260408201529116907f650fdf669e93aa6c8ff3defe2da9c12b64f1548e5e1e54e803f4c1beb6466c8e9080606081015b0390a260015f805160206114028339815191525580f35b8754875163a9059cbb60e01b81529087166001600160a01b031691810191825260208201859052929591869184919082908b90829060400103925af19485156104ab577f650fdf669e93aa6c8ff3defe2da9c12b64f1548e5e1e54e803f4c1beb6466c8e956103e593610477928a9261047e575b50506113bc565b935f6103a5565b61049d9250803d106104a4575b61049581836112ac565b81019061131d565b5f80610470565b503d61048b565b86513d89823e3d90fd5b6104d188808080898b8254165af16104cb611339565b50611378565b61039f565b875162461bcd60e51b815280830185905260146024820152734e6f2066756e647320746f20776974686472617760601b6044820152606490fd5b50841515610395565b9093508281813d8311610545575b61053181836112ac565b810103126105415751925f610389565b8780fd5b503d610527565b87513d8a823e3d90fd5b50823461019757816003193601126101975760207f62e78cea01bee320cd4e420270b5ea74000d11b0c9f74754ebdbfc544b05a25891610594611251565b61059c6112ce565b835460ff60a01b1916600160a01b17845551338152a180f35b503461060f578060031936011261060f576105ce611251565b80546001600160a01b03198116825581906001600160a01b03167f8be0079c531659141344cd1fd0a4f28419497f9722a3daafe3b4186f6b6457e08280a380f35b80fd5b509182600319360112610229576106276112ee565b61062f6112ce565b655af3107a400034106107b257678ac7230489e8000034116107785780513360601b6bffffffffffffffffffffffff1916602082019081523460348301524260548301524660748301529061069181609481015b03601f1981018352826112ac565b5190209061072f81516106a38161127c565b338152602081019434865283820195600196878152610713606085019142835260808601938a8552898c528a602052888c209660018060a01b039051166bffffffffffffffffffffffff60a01b885416178755518a870155511515600286019060ff801983541691151516179055565b51600384015551151591019060ff801983541691151516179055565b80519034825283602083015242908201527f492104fc1f5947ffca8ce35d6339b885a6dbbe0771e2e317e92dbdd6cc3d611960603392a35f805160206114028339815191525580f35b906020606492519162461bcd60e51b8352820152601460248201527345544820616d6f756e7420746f6f206c6172676560601b6044820152fd5b906020606492519162461bcd60e51b8352820152601460248201527311551208185b5bdd5b9d081d1bdbc81cdb585b1b60621b6044820152fd5b5091346102295760209081600319360112610bfc5782359161080c6112ee565b6108146112ce565b620f42408310610bc25766038d7ea4c680008311610b88578215610b47578151636eb1769f60e11b81523385820152306024808301919091526001600160a01b03917f00000000000000000000000000000000000000000000000000000000000000008316908481604481855afa908115610ad1579087918a91610b16575b5010610adb5784516370a0823160e01b8152338882015284818481855afa908115610ad1579087918a91610a9c575b5010610a635783889160648751809481936323b872dd60e01b8352338d84015230888401528b60448401525af1908115610a59578891610a3c575b5015610a04575082513360601b6bffffffffffffffffffffffff1916818401908152601481018690524260348201524660548201528793926109bd929091906109498160748401610683565b519020968551916109598361127c565b33835284830188815261071388850188815260608601924284526080870194600186528d8b5260018a528b8b209751166bffffffffffffffffffffffff60a01b885416178755516001870155511515600286019060ff801983541691151516179055565b825193845283015242908201527f492104fc1f5947ffca8ce35d6339b885a6dbbe0771e2e317e92dbdd6cc3d611960603392a360015f805160206114028339815191525580f35b8560146064928587519362461bcd60e51b8552840152820152731554d110c81d1c985b9cd9995c8819985a5b195960621b6044820152fd5b610a539150843d86116104a45761049581836112ac565b5f6108fd565b85513d8a823e3d90fd5b845162461bcd60e51b815280880185905260148184015273496e73756666696369656e742062616c616e636560601b6044820152606490fd5b809250868092503d8311610aca575b610ab581836112ac565b81010312610ac6578690515f6108c2565b8880fd5b503d610aab565b86513d8b823e3d90fd5b845162461bcd60e51b815280880185905260168184015275496e73756666696369656e7420616c6c6f77616e636560501b6044820152606490fd5b809250868092503d8311610b40575b610b2f81836112ac565b81010312610ac6578690515f610893565b503d610b25565b808491606493519262461bcd60e51b845283015260248201527f416d6f756e74206d7573742062652067726561746572207468616e207a65726f6044820152fd5b8390606492519162461bcd60e51b835282015260156024820152745553444320616d6f756e7420746f6f206c6172676560581b6044820152fd5b8390606492519162461bcd60e51b835282015260156024820152741554d110c8185b5bdd5b9d081d1bdbc81cdb585b1b605a1b6044820152fd5b8380fd5b50823461019757816003193601126101975760ff6020925460a01c1690519015158152f35b509190346102295781600319360112610229578035602435610c45611251565b610c4d6112ee565b478211610d7b5783516370a0823160e01b815230818501526001600160a01b03936020917f0000000000000000000000000000000000000000000000000000000000000000861691908381602481865afa908115610d71578991610d44575b508411610d0157846104b557836103fc575050855494519283525060208201524260408201529116907f650fdf669e93aa6c8ff3defe2da9c12b64f1548e5e1e54e803f4c1beb6466c8e9080606081016103e5565b865162461bcd60e51b8152908101839052601960248201527f496e73756666696369656e7420555344432062616c616e6365000000000000006044820152606490fd5b90508381813d8311610d6a575b610d5b81836112ac565b81010312610ac657515f610cac565b503d610d51565b88513d8b823e3d90fd5b835162461bcd60e51b8152602081850152601860248201527f496e73756666696369656e74204554482062616c616e636500000000000000006044820152606490fd5b50919034610229578260031936011261022957610dd9611251565b82549060ff8260a01c1615610e1f575060ff60a01b19168255513381527f5db9ee0a495bf2e6ff9c91a7834c1ba4fdd244a5e8aa4e537bd38aeae4b073aa90602090a180f35b8251638dfc202b60e01b8152fd5b50823461019757816003193601126101975760209051655af3107a40008152f35b50823461019757816003193601126101975760209051678ac7230489e800008152f35b5090346101975760209283600319360112610229576001600160a01b038235818116939084900361022557610ea4611251565b831561109957817f00000000000000000000000000000000000000000000000000000000000000001684146110565782516370a0823160e01b81523082820152918683602481885afa928315610fde578693611023575b508215610fe8578554845163a9059cbb60e01b815291166001600160a01b031682820190815260208101849052879082908190604001038189895af1908115610fde578691610fc1575b5015610f7e57507f56da9a5ae0bcf6e7c3fdd78a10550e7d0458de1c39bfb7f6e96a3e92dd344a6892939482519182524290820152a280f35b825162461bcd60e51b8152908101869052601760248201527f546f6b656e207769746864726177616c206661696c65640000000000000000006044820152606490fd5b610fd89150873d89116104a45761049581836112ac565b5f610f45565b84513d88823e3d90fd5b835162461bcd60e51b815280830188905260156024820152744e6f20746f6b656e7320746f20776974686472617760581b6044820152606490fd5b9092508681813d831161104f575b61103b81836112ac565b8101031261104b5751915f610efb565b8580fd5b503d611031565b825162461bcd60e51b8152908101869052601e60248201527f5573652077697468647261772066756e6374696f6e20666f72205553444300006044820152606490fd5b825162461bcd60e51b81529081018690526015602482015274496e76616c696420746f6b656e206164647265737360581b6044820152606490fd5b503461060f578060031936011261060f5782516370a0823160e01b8152309281019290925247916020816024817f00000000000000000000000000000000000000000000000000000000000000006001600160a01b03165afa91821561117d578092611149575b505082519182526020820152f35b9091506020823d8211611175575b81611164602093836112ac565b8101031261060f5750515f8061113b565b3d9150611157565b8451903d90823e3d90fd5b508234610197578160031936011261019757517f00000000000000000000000000000000000000000000000000000000000000006001600160a01b03168152602090f35b50919034610229576020366003190112610229578160a09382358152600160205220600180851b038154169260018201549260ff80600285015416916003850154940154169382519586526020860152151590840152606083015215156080820152f35b9050346101975781600319360112610197578066038d7ea4c6800060209252f35b5f546001600160a01b0316330361126457565b60405163118cdaa760e01b8152336004820152602490fd5b60a0810190811067ffffffffffffffff82111761129857604052565b634e487b7160e01b5f52604160045260245ffd5b90601f8019910116810190811067ffffffffffffffff82111761129857604052565b60ff5f5460a01c166112dc57565b60405163d93c066560e01b8152600490fd5b5f80516020611402833981519152600281541461130b5760029055565b604051633ee5aeb560e01b8152600490fd5b90816020910312611335575180151581036113355790565b5f80fd5b3d15611373573d9067ffffffffffffffff82116112985760405191611368601f8201601f1916602001846112ac565b82523d5f602084013e565b606090565b1561137f57565b60405162461bcd60e51b8152602060048201526015602482015274115512081dda5d1a191c985dd85b0819985a5b1959605a1b6044820152606490fd5b156113c357565b60405162461bcd60e51b81526020600482015260166024820152751554d110c81dda5d1a191c985dd85b0819985a5b195960521b6044820152606490fdfe9b779b17422d0df92223018b32b4d1fa46e071723d6817e2486d003becc55f00a26469706673582212206910415b44e2f8fd7059f9008d467fca9bd8623d053c9d150231cdee9abaa17d64736f6c63430008140033","linkReferences":{}},"methodIdentifiers":{"MAX_ETH_PAYMENT()":"2beb7a5e","MAX_USDC_PAYMENT()":"0328311a","MIN_ETH_PAYMENT()":"36476260","MIN_USDC_PAYMENT()":"f66cde01","emergencyWithdrawToken(address)":"1af03203","getBalance()":"12065fe0","getPayment(bytes32)":"e66eefc8","owner()":"8da5cb5b","pause()":"8456cb59","paused()":"5c975abb","payETH()":"6860d966","payUSDC(uint256)":"5d1a8d7b","payments(bytes32)":"0716326d","renounceOwnership()":"715018a6","transferOwnership(address)":"f2fde38b","unpause()":"3f4ba83a","usdcToken()":"11eac855","withdraw(uint256,uint256)":"441a3e70","withdrawAll()":"853828b6"},"id":6}